:020000040800F2
:10000000700B0020691300084D0300084F0300081F
:1000100053030008570300085B03000800000000BA
:100020000000000000000000000000005F03000866
:100030006103000800000000630300086503000876
:100040008313000883130008831300088313000838
:100050008313000883130008410E0008890E00086E
:10006000090F000883130008831300088313000896
:100070008313000883130008831300088313000808
:1000800083130008831300088313000883130008F8
:1000900083130008831300088313000883130008E8
:1000A00083130008831300088313000883130008D8
:1000B0008313000807100008831300088313000847
:1000C00083130008831300088313000883130008B8
:1000D00083130008DF12000883130008831300084D
:1000E0008313000883130008831300088313000898
:1000F0008313000883130008831300088313000888
:100100008313000883130008831300088313000877
:100110008313000883130008831300088313000867
:100120008313000883130008831300088313000857
:1001300000F002F800F03AF80AA090E8000C8244BF
:100140008344AAF10107DA4501D100F02FF8AFF29C
:10015000090EBAE80F0013F0010F18BFFB1A43F0A5
:1001600001031847503B0000703B0000103A24BFC9
:1001700078C878C1FAD8520724BF30C830C144BF0C
:1001800004680C607047000000230024002500264E
:10019000103A28BF78C1FBD8520728BF30C148BFEA
:1001A0000B6070471FB51FBD10B510BD02F08EFE6D
:1001B0001146FFF7F7FF00F009F802F0ACFE03B4B8
:1001C000FFF7F2FF03BC01F02FF8000008B500F0C4
:1001D000BBFF01F023F800F0B7F900F018FC00F0C5
:1001E000D8FD012010231A4600210090084600F097
:1001F000CEFB01201023112200210090082000F0E6
:10020000C6FB01201023122200210090184600F0A6
:10021000BEFB01201023132200210090182000F0C3
:10022000B6FB01201023002211460090202000F090
:10023000AEFB01201023024600210090282000F090
:10024000A6FB01201023022200210090302000F0A4
:100250009EFB01201023032200210090382000F093
:1002600096FB37A20021402000F06FFB01201023F5
:10027000062200210090482000F089FB0120102375
:10028000072200210090502000F081FB0120102364
:10029000082200210090582000F079FB0120102353
:1002A000092200210090602000F071FB0120102342
:1002B0000E2200210090682000F069FB012010232D
:1002C0000F2200210090702000F061FB1DA2102180
:1002D000002000F03AFB0120102314221946009060
:1002E000184600F054FB01201023152219460090F7
:1002F000182000F04CFB14A21021302000F025FB48
:1003000001201023042219460090482000F03FFBF2
:1003100001201023052219460090502000F037FBE1
:1003200041F61F41632000F041FE00F0C7F900BF15
:1003300004E000F0C3F9052000F043FFF9E70000F6
:100340003A000000303000002E000000704700BF6F
:10035000FEE700BFFEE700BFFEE700BFFEE7704715
:1003600070477047704700000CB500200190009066
:100370006C48006840F480306A49086000BF6948F2
:10038000006800F4003000900198401C0190009833
:1003900018B90198B0F5A06FF1D16248006800F477
:1003A000003010B10120009001E000200090009882
:1003B000012843D15C48006840F010005A490860A9
:1003C0000846006820F0030008600846006840F016
:1003D0000200086053484068524948600846406837
:1003E00048600846406840F48060486008464068BD
:1003F00020F47C1048600846406840F4E8104860EB
:100400000846006840F08070086000BF45480068FA
:1004100000F000700028F9D04248406820F0030046
:10042000404948600846406840F00200486000BF0C
:100430003C48406800F00C000828F9D10CBD10B50C
:10044000FFF792FF10BD10B53648006840F001007C
:1004500034490860084640683449084031494860DA
:1004600008460068324908402E490860084600687E
:1004700020F4802008600846406820F4FE004860B0
:100480004FF41F008860FFF7DAFF4FF00060294942
:10049000086010BD10B5002100200022214B5B68D0
:1004A00003F00C0121B1042906D0082928D107E066
:1004B000214B224C236027E01F4B204C236023E07C
:1004C000184B5B6803F47010164B5B6803F48032C2
:1004D000022303EB904022B9194B4343174C23608E
:1004E0000DE0104B5B6803F4003323B1144B43431E
:1004F000124C236003E0104B4343104C236003E095
:100500000D4B0E4C236000BF00BF064B5B68C3F36E
:1005100003130C4CE15C094B1B68CB40074C236078
:1005200010BD000000100240002002400000FFF853
:10053000FFFFF6FE08ED00E000127A000000002048
:1005400000093D000400002008B50121482001F009
:10055000B5FA2020ADF8000010208DF8030003202C
:100560008DF802006946094800F0ECFF2021074899
:1005700001F095F82020ADF800006946044800F02D
:10058000E1FF2021024801F08AF808BD000C01407B
:100590000018014008B50121082001F08FFA07205A
:1005A000ADF8000048208DF803006946264800F0A9
:1005B000C9FF08BD10B5044614B1012023490870D5
:1005C0002248007848B301211F4801F04EF848B195
:1005D00002211D4801F049F820B104211A4801F018
:1005E00044F8D0B90A2000F0ECFD0020174908704B
:1005F0000121154801F039F808B9012010BD022188
:10060000114801F032F808B90220F7E704210E483A
:1006100001F02BF8A8B90320F0E701210A4801F006
:1006200024F801280DD10221074801F01EF8012805
:1006300007D10421044801F018F8012801D1034929
:1006400008700020DAE70000000C014014000020D0
:1006500070B504460E4626B12021FE4801F01FF871
:1006600003E02021FB4801F01CF84021F94801F08B
:1006700018F8002517E00121F74801F012F804F0FE
:10068000800020B10221F44801F009F803E00221C2
:10069000F14801F006F80121EF4801F000F860068A
:1006A000040E681CC5B2082DE5DB4021E94800F0C6
:1006B000F6FF2021E74800F0F2FF70BD70B500247E
:1006C0001CE004F1B001C8B20021FFF7C1FF002116
:1006D0000846FFF7BDFF00211020FFF7B9FF0025F6
:1006E00008E0DE4901EBC501085D0121FFF7B0FF1D
:1006F000681CC5B2802DF4DB601CC4B2082CE0DBA2
:1007000070BD10B500218D20FFF7A2FF002114203D
:10071000FFF79EFF0021AF20FFF79AFF10BD10B535
:1007200000218D20FFF794FF00211020FFF790FF9C
:100730000021AE20FFF78CFF10BD70B500240CE047
:10074000002506E00020C54901EBC5010855681CDD
:10075000C5B2802DF6DB601CC4B2082CF0DBFFF7BD
:10076000ADFF70BDF0B5144600267F2801DC3F299F
:1007700000DDF0BD0B46CF1701EB5777FF10C7F137
:100780000707FAB2CF1701EB5777FF10A1EBC707A6
:10079000FDB2C5F107070123BB40DEB24CB1AF4B40
:1007A00003EBC0039B5C3343AC4F07EBC007BB5468
:1007B00008E0AA4B03EBC0039B5CB343A74F07EBD6
:1007C000C007BB5400BFD4E72DE9F04706460F46EB
:1007D00090469946DDF820A034460CE03D4606E000
:1007E000524629462046FFF7BDFF681CC5B24D455D
:1007F000F6DD601CC4B24445F0DDFFF75FFFBDE8E5
:10080000F0872DE9F04F80460C4615461E46A3465C
:10081000A5F12000C5B200273EE00C2E07D105EB64
:1008200045008F4901EB800010F8079004E08D48E7
:1008300000EB051010F807904FF0000A26E009F0D1
:10084000800028B121464046099AFFF78BFF09E056
:10085000099808B9012000E00020024621464046E0
:10086000FFF780FF4FEA49604FEA1069601CC4B28D
:10087000A4EB0B00B04205D15C4608F1010000F08A
:10088000FF0806E00AF1010000F0FF0ABAF1080FC4
:10089000D5DB00BF781CC7B2B742BEDBBDE8F08F26
:1008A00010B50246012000E050430B1EA1F10104E7
:1008B000E1B2F9D110BD2DE9FF4F81B00746914655
:1008C0001E460E9D4FF0000A002439E0301B401EEA
:1008D000C1B20A20FFF7E4FFB9FBF0F00A21B0FB38
:1008E000F1F201FB1208BAF1000F16D1701EA042FE
:1008F00013DDB8F1000F0ED10120AB4605EBDB7123
:10090000491001FB04710090C8B22B4620220299C5
:10091000FFF777FF12E04FF0010A0120AB4605EB2D
:10092000DB71491001FB04710090C8B208F130017D
:10093000CAB22B460299FFF764FF00BF601CC4B225
:10094000B442C3DB05B0BDE8F08FF8B505460E46EE
:10095000144618E07A2D03DD002506F11000C6B21A
:100960003A2E04DD002005460646FFF7E6FE01208C
:1009700000902278102331462846FFF742FF05F108
:100980000800C5B2641C20780028E3D1F8BD2DE929
:10099000F04F07460C4690461D46A346002632E01F
:1009A000314800EB081010F806904FF0000A24E0E0
:1009B00009F0800028B121463846099AFFF7D2FE97
:1009C00009E0099808B9012000E00020024621460C
:1009D0003846FFF7C7FE4FEA49604FEA1069601CCE
:1009E000C4B2A4EB0B00A84203D15C46781CC7B28A
:1009F00006E00AF1010000F0FF0ABAF1080FD7DBA8
:100A000000BF701CC6B2AE42CADBBDE8F08F08B5AD
:100A100001210C2001F052F86020ADF800001020F8
:100A20008DF8030003208DF802006946094800F0A4
:100A300089FD6021074800F032FE0320ADF8000078
:100A40006946054800F07EFD0321034800F027FEBB
:100A500040200BE0000C0140000801404400002051
:100A6000302F0008C4360008A4330008ADF8000099
:100A700069463C4800F066FD40213A4800F00FFE10
:100A80004021384800F00DFE642000F09AFB402120
:100A9000344800F004FE0021AE20FFF7D9FD00210C
:100AA000D520FFF7D5FD00215020FFF7D1FD002113
:100AB000A820FFF7CDFD00213F20FFF7C9FD002151
:100AC000D320FFF7C5FD00210846FFF7C1FD002137
:100AD0004020FFF7BDFD00218D20FFF7B9FD00216B
:100AE0001420FFF7B5FD00212020FFF7B1FD002104
:100AF0000220FFF7ADFD0021A120FFF7A9FD002195
:100B0000C020FFF7A5FD0021DA20FFF7A1FD00219D
:100B10001220FFF79DFD00218120FFF799FD0021A4
:100B2000EF20FFF795FD0021D920FFF791FD00216F
:100B3000F120FFF78DFD0021DB20FFF789FD00216B
:100B40003020FFF785FD0021A420FFF781FD002163
:100B5000A620FFF77DFD0021AF20FFF779FDFFF70D
:100B6000ECFD08BD00080140F74908807047F749CF
:100B700008807047F6490880704708B50020FFF7E5
:100B8000F9FF0020FFF7F3FF0020FFF7EDFFF1482A
:100B9000008800287DD1012010231A4600210090F2
:100BA0000846FFF7F4FE01201023112200210090D7
:100BB0000820FFF7ECFE01201023122200210090F4
:100BC0001846FFF7E4FE01201023132200210090B5
:100BD0001820FFF7DCFE01201023002211460090B0
:100BE0002020FFF7D4FE01201023024600210090B0
:100BF0002820FFF7CCFE01201023022200210090C4
:100C00003020FFF7C4FE01201023032200210090B2
:100C10003820FFF7BCFED0A200214020FFF795FE50
:100C2000012010230622002100904820FFF7AFFE8C
:100C3000012010230722002100905020FFF7A7FE7B
:100C4000012010230822002100905820FFF79FFE6A
:100C5000012010230922002100906020FFF797FE59
:100C6000012010230E22002100906820FFF78FFE44
:100C7000012010230F22002100907020FFF787FE33
:100C8000B6A220210020FFF760FEB4A23021002090
:100C900000E002E0FFF759FE7AE0AE480088012844
:100CA00076D11020B0490880012010231A46002177
:100CB00000900846FFF76BFE01201023112200214F
:100CC00000900820FFF763FE01201023122200216C
:100CD00000901846FFF75BFE01201023132200212D
:100CE00000901820FFF753FE012010230022114628
:100CF00000902020FFF74BFE012010230246002128
:100D000000902820FFF743FE01201023022200213B
:100D100000903020FFF73BFE01201023032200212A
:100D200000903820FFF733FE8BA200214020FFF710
:100D30000CFE012010230422002100904820FFF720
:100D400026FE012010230522002100905020FFF7ED
:100D50001EFE012010231622002100905820FFF7CC
:100D600016FE012010231722002100906020FFF7BB
:100D70000EFE7EA200216820FFF7E7FD77A220216A
:100D80000020FFF7E2FD75A230210020FFF7DDFD16
:100D900008BD0EB5FFF7FEFB0121084600F08EFEF0
:100DA0000021012000F0E4FC0120019000208DF8DA
:100DB00008000C208DF8090001208DF80A0001A818
:100DC00001F0F2F80121084600F0D2FC0220019067
:100DD00001A801F0E9F80221012000F0C9FC04207B
:100DE000019001A801F0E0F806208DF80000022033
:100DF0008DF801008DF8020001208DF8030068468F
:100E000000F0D7FA07208DF8000002208DF80100CD
:100E100001208DF802008DF80300684600F0C9FA41
:100E200008208DF8000002208DF8010000208DF8C8
:100E3000020001208DF80300684600F0BAFA0EBDEA
:100E400010B50A2000F0BDF90121494800F00DFC61
:100E5000012815D10020FFF78DFE0020FFF787FE47
:100E60000020FFF781FE00204249088039480088B1
:100E700008B9012000E0002036490880FFF77DFE18
:100E8000012001F008F910BD10B50A2000F099F911
:100E90000221374800F0E9FB30BB2E48008858B9E2
:100EA0001020314908803348008808B9012000E04B
:100EB00000203049088023E02648008801281FD1FF
:100EC0002C48008818B901202A49088018E02948D0
:100ED0000088012809D124480088302805DA2248F2
:100EE00000881030204908800AE022480088012844
:100EF00006D11D480088302802D110201A490880E8
:100F0000022001F0C8F810BD10B50A2000F059F910
:100F10000421174800F0A9FB40B91648008818B111
:100F200000201449088001E0FFF727FE042001F0AB
:100F3000B2F810BD0748008870470649088070471E
:100F400003480088704700001C0000201A000020A1
:100F500018000020160000203A0000002020202069
:100F60002020202020202000200000202020000021
:100F7000000C01401E000020084800887047084807
:100F80000088704707480088704707480088704706
:100F90000449088070470449088070471A000020FF
:100FA0001C0000201E000020200000207FB5054608
:100FB0000C460121022000F08EFDADF80850ADF87E
:100FC00004400020ADF80A00ADF8060001A95B4816
:100FD00001F03EF901221146584801F0B0FC1D20F5
:100FE0008DF8000000208DF8010003208DF802002C
:100FF00001208DF80300684600F0DBF901214F481D
:1010000001F082FC7FBD38B501214C4801F045FF5D
:1010100000287CD0FFF7B6FF10B3FFF791FF401C0C
:1010200084B22046FFF7A6FDFFF78AFF642809D1A6
:10103000FFF7A2FF401C84B22046FFF798FD002076
:10104000FFF798FDFFF798FF3C2809D1FFF797FFBE
:10105000401C84B22046FFF787FD0020FFF787FD84
:10106000FFF793FF044636A221460020FFF76DFCF0
:10107000FFF78BFF04460120102314222146009025
:101080001846FFF784FCFFF780FF04460120102379
:101090001522214600901820FFF779FCFFF775FF15
:1010A000044628A221463020FFF74FFCFFF76DFFD2
:1010B0000446012010230422214600904820FFF717
:1010C00066FCFFF762FF044601201023052221463B
:1010D00000905020FFF75BFCFFF74EFF0446FFF740
:1010E00054FF054610200223224629460090202066
:1010F000FFF7E1FBFFF724FF0446FFF746FF054635
:1011000010200223224629460090342000E013E0FC
:10111000FFF7D1FBFFF733FF0446FFF736FF054625
:10112000102002232246294600900020FFF7C3FB2F
:101130000121024801F0C2FE38BD00000004004059
:10114000303000002E00000010B56FF0040000F0F9
:101150007AF92E4800682E49B0FBF1F02D4908704D
:101160000846007800EB4001C1EBC0104FF6FF715C
:1011700001EAC0002849088010BD0146254A1278BE
:101180004A434FF0E0235A6100229A611A461269DD
:1011900042F001021A6100BF4FF0E022106900F036
:1011A00001021AB100F48032002AF5D04FF0E0229B
:1011B000126922F001024FF0E0231A6100229A61C5
:1011C00070470146144A12884A434FF0E0235A619F
:1011D00000229A611A46126942F001021A6100BFA8
:1011E0004FF0E022106900F001021AB100F48032E1
:1011F000002AF5D04FF0E022126922F001024FF0F0
:10120000E0231A6100229A6170470000000000206C
:1012100000127A00220000202400002010B54FF4B4
:10122000A06000F0C1F810BD014600BF704700BFCC
:10123000494A128802F04002002AF9D0C2B2464B55
:101240001B1D1A80704710B586B00446012144F278
:10125000050000F033FC4FF40070ADF814000320DB
:101260008DF8160018208DF8170005A93B4800F0EE
:1012700069F94FF48060ADF8140004208DF8170070
:1012800005A9364800F05EF925208DF800000320FE
:101290008DF801008DF8020001208DF803006846EA
:1012A00000F087F801940020ADF80800ADF80A00BE
:1012B000ADF80C00ADF810000C20ADF80E0001A93F
:1012C000254800F0A2FC012240F22551224800F0FE
:1012D00034FD0121204800F024FD06B010BD10B5FA
:1012E00040F225511C4800F00DFE10B31A4800F0E2
:1012F00089FDC4B21A48008800F40040C8B91848F3
:10130000008800F4804060B10A2C03D0002014490A
:10131000088020E01248008840F40040104908800E
:1013200019E00D2C06D10E48008840F480400C498D
:10133000088010E00A480088C0F30D0009490C54E9
:1013400007480088401C0649088008460088C728CE
:1013500001DD0020088010BD003801400008014078
:101360002C00002044040020094880470948004719
:10137000FEE7FEE7FEE7FEE7FEE7FEE7FEE7FEE745
:10138000FEE7FEE704480549054A064B70470000A2
:10139000470400083101000870050020700B002090
:1013A000700700207007002031490143314A116065
:1013B000704770B5002100230F22C47804B32D4C70
:1013C000246804F4E064C4F5E064210AC1F1040374
:1013D000CA40447804FA03F1847814402143090197
:1013E000254C0678A155047804F01F050124AC4073
:1013F00005786D11AD0005F1E025C5F8004109E063
:10140000047804F01F050124AC401C4D06787611C9
:1014100045F8264070BD1A4A0A400243154B1B1F6F
:101420001A60704739B1134A121D12680243114BFA
:101430001B1D1A6006E00F4A121D126882430D4BF5
:101440001B1D1A607047042808D14FF0E02109697C
:1014500041F004014FF0E022116107E04FF0E0217C
:10146000096921F004014FF0E0221161704700008A
:101470000000FA050CED00E000E400E080E100E08F
:1014800080FFFF1F10B50446CC48844208D10121DB
:10149000042000F02DFB0021042000F029FB46E091
:1014A000C748844208D10121082000F021FB002117
:1014B000082000F01DFB3AE0C248844208D1012117
:1014C000102000F015FB0021102000F011FB2EE091
:1014D000BD48844208D10121202000F009FB0021F1
:1014E000202000F005FB22E0B848844208D1012109
:1014F000402000F0FDFA0021402000F0F9FA16E04B
:10150000B348844208D10121802000F0F1FA002183
:10151000802000F0EDFA0AE0AE48844207D10121B4
:10152000801500F0E5FA0021A01500F0E1FA10BDE9
:1015300010B50121084600F0DBFA0021012000F07F
:10154000D7FA10BD2DE9F041024600250026002003
:1015500000230024002791F803C00CF00F0591F838
:1015600003C00CF0100CBCF1000F03D091F802C0C6
:101570004CEA050591F800C0BCF1000F31D01468A9
:1015800000202BE04FF0010C0CFA00F3B1F800C082
:101590000CEA03069E4220D183004FF00F0C0CFA98
:1015A00003F7BC4305FA03FC4CEA040491F803C0BA
:1015B000BCF1280F06D14FF0010C0CFA00FCC2F868
:1015C00014C00AE091F803C0BCF1480F05D14FF0F8
:1015D000010C0CFA00FCC2F810C0401C0828D1D342
:1015E0001460B1F800C0BCF1FF0F34DD5468002076
:1015F0002EE000F1080C4FF0010808FA0CF3B1F8E6
:1016000000C00CEA03069E4221D183004FF00F0C6C
:101610000CFA03F7BC4305FA03FC4CEA040491F806
:1016200003C0BCF1280F05D100F1080C08FA0CF832
:10163000C2F8148091F803C0BCF1480F07D100F143
:10164000080C4FF0010808FA0CF8C2F81080401C92
:101650000828CED35460BDE8F0814FF6FF710180B9
:10166000022181700421C1707047024600209368F6
:101670000B400BB1012000E0002070470146886854
:1016800080B2704702460020D3680B400BB10120A6
:1016900000E0002070470146C86880B270470161D1
:1016A0007047416170470AB1016100E041617047D4
:1016B000C16070474FF480320A4382618161826168
:1016C00082698269704702460020434B18684FF6D2
:1016D0008073184040EA021008433F4B186070477F
:1016E0003E49C8617047F0B50A4600230024002136
:1016F000002500F00046B6F1004F02D1364EF169E8
:1017000001E0354E7168C0F3034583B200F4401622
:10171000B6F5401F08D121F070612F4E766826F093
:1017200070662D4F7E6012E000F48016B6F5801FC3
:1017300006D1032606FA05F4A14341F0706106E0E4
:10174000460D360103FA06F6B14341F0706122B14D
:10175000460D360103FA06F6314300F00046B6F1B5
:10176000004F02D11C4EF16101E01B4E7160F0BDD3
:1017700030B500228B071C0F0F2303FA04F2164B1F
:1017800008338C1053F824309343134C08348D10D5
:1017900044F8253023468C1053F824308C07240F4E
:1017A00000FA04F423430C4C08348D1044F825301F
:1017B00030BD0A49DC310860704700000008014074
:1017C000000C0140001001400014014000180140CD
:1017D000001C0140002001400000014000002042A8
:1017E000DF48006840F00100DD49086008464068B5
:1017F000DC490840DA49486008460068DA49084090
:10180000D74908600846006820F480200860084630
:10181000406820F4FE0048604FF41F008860704765
:10182000CF49096821F48031CD4A11601146096819
:1018300021F480211160B0F5803F03D0B0F5802FF6
:101840000ED106E0C649096841F48031C44A1160EE
:1018500007E0C349096841F4A021C14A116000E0D2
:1018600000BF00BF704710B50146002200230020D2
:101870004A11012A02D1BA4C236806E0022A02D199
:10188000B74C236A01E0B64C636A01F01F020124E1
:1018900094401C400CB1012000E0002010BD38B580
:1018A000002000900024002500BF3120FFF7DBFF5F
:1018B00005460098401C00900098B0F5A06F01D03C
:1018C000002DF2D03120FFF7CEFF08B1012400E057
:1018D0000024204638BD01460020A14A106820F0AF
:1018E000F80040EAC10010607047A04908607047E6
:1018F000024600209A4B586820F47C1042EA01030B
:101900001843974B586070479849086670470146DE
:101910000020934A506820F003000843506070474D
:101920008F48406800F00C007047014600208C4A48
:10193000506820F0F00008435060704701460020D6
:10194000874A506820F4E0600843506070470146C1
:101950000020834A506820F4605040EAC100506083
:10196000704729B17E4A527A02437D4B5A7204E095
:101970007B4A527A82437A4B5A7270477B49D831FC
:101980000860704701460020754A506820F44040C6
:101990000843506070470021714A20321170704A2C
:1019A00082F82010012802D004280AD104E0012185
:1019B0006B4A2032117005E00521694A203211700E
:1019C00000E000BF00BF7047694908607047644984
:1019D000096A0143624A11627047654944390860E7
:1019E000704730B500210022002400235C4D6D6853
:1019F00005F00C0121B1042905D0082923D105E007
:101A00005C4D056022E05B4D05601FE0544D6D6844
:101A100005F47012524D6D6805F48034022505EB13
:101A200092421CB9544D554305600BE04C4D6D6816
:101A300005F400351DB1504D5543056002E04D4D94
:101A40005543056002E04B4D056000BF00BF444DAB
:101A50006D6805F0F0010909484D6B5C0568DD40D3
:101A600045603F4D6D6805F4E061090A434D6B5CCC
:101A70004568DD4085603A4D6D6805F46051C90ADE
:101A80003E4D6B5C4568DD40C560354D6D6805F4C5
:101A90004041890B3A4D6B5CC568B5FBF3F50561B8
:101AA00030BD29B12E4A526902432D4B5A6104E0E0
:101AB0002B4A526982432A4B5A61704729B1284AFE
:101AC00092690243264B9A6104E0254A9269824357
:101AD000234B9A61704729B1214AD2690243204BB6
:101AE000DA6104E01E4AD26982431D4BDA61704715
:101AF00029B11B4AD2680243194BDA6004E0184A44
:101B0000D2688243164BDA60704729B1144A1269D1
:101B10000243134B1A6104E0114A12698243104BCD
:101B20001A61704712494039086070470F49C8640C
:101B300070470B49C87170470948406A40F080708F
:101B400007494862704701460020054A92680A40EA
:101B50000AB1012000E000207047014988727047F7
:101B6000001002400000FFF8FFFFF6FE00004242B6
:101B70008004424200127A0000093D002E0000203D
:101B80003E00002010B50446FB48844209D10121E3
:101B90008803FFF7ADFF00214FF48040FFF7A8FF57
:101BA00032E0F648844209D101214804FFF7ADFF35
:101BB00000214FF40030FFF7A8FF25E0F0488442F1
:101BC00009D101218804FFF7A0FF00214FF48020F4
:101BD000FFF79BFF18E0EB48844209D10121C804BC
:101BE000FFF793FF00214FF40020FFF78EFF0BE07B
:101BF000E548844208D101210805FFF786FF00214E
:101C00004FF48010FFF781FF10BD2DE9F04786B03B
:101C100005460E460024A24600BFA1460027B08913
:101C200000B100BF2F462C8A4CF6FF700440F088AC
:101C300004432C82AC894EF6F3100440B0883189FD
:101C40000843718908430443AC81AC8A4FF6FF40D6
:101C50000440B0890443AC8201A8FFF7C2FEC64825
:101C6000874202D1DDF810A001E0DDF80CA0A889C0
:101C700000F4004040B10AEBCA0000EB0A103168E2
:101C80004900B0FBF1F807E00AEBCA0000EB0A10CC
:101C900031688900B0FBF1F86420B8FBF0F0040172
:101CA0002009642101FB1089A88900F4004040B19B
:101CB000322000EBC900B0FBF1F000F00700044354
:101CC00008E0322000EB09106421B0FBF1F000F0D5
:101CD0000F0004432C8106B0BDE8F0874FF4165185
:101CE000016000218180C18001810C21418100219E
:101CF0008181704710B502460020108A4FF2FF0321
:101D000018400B884C8823438C882343CC8823437A
:101D10001843108210BD0021018041808180C18064
:101D2000704721B1828942F40052828104E08289A5
:101D30004DF6FF731A4082817047F0B503460024C8
:101D400000260025002040F66A17B94200D100BFE6
:101D50001846C1F3421401F01F06012707FA06F5E1
:101D6000012C01D10C3004E0022C01D1103000E034
:101D700014301AB107682F43076002E00768AF43C9
:101D80000760F0BD1AB1838A0B43838202E0838A25
:101D90008B4383827047028A4FF6F0731A400282A7
:101DA000028A0A430282704782894FF2FF731A4007
:101DB000828182890A438281704721B1828942F0FF
:101DC0000202828104E082894FF6FD731A4082810B
:101DD0007047028A4FF6DF731A400282028A0A4372
:101DE0000282704721B1028A42F48042028204E0FA
:101DF000028A4BF6FF731A4002827047C1F3080251
:101E00008280704701468888C0F308007047818946
:101E100041F0010181817047028BD2B20283028BB3
:101E200042EA012202837047028B02F47F4202835E
:101E3000028B0A430283704721B1828A42F020025A
:101E4000828204E0828A4FF6DF731A4082827047F2
:101E500021B1828A42F01002828204E0828A4FF627
:101E6000EF731A408282704721B1828A42F00802E1
:101E7000828204E0828A4FF6F7731A4082827047AA
:101E800021B1828942F40042828103E08289C2F357
:101E90000E028281704721B1828A42F400628282FE
:101EA00004E0828A4FF2FF731A4082827047828A6E
:101EB0004FF6FB731A408282828A0A4382827047FD
:101EC00021B1828A42F00202828204E0828A4FF6C5
:101ED000FD731A408282704702460020B1F5007FF0
:101EE00000D100BF13880B400BB1012000E000209F
:101EF000704701F40072B2F5007F00D100BFCA4301
:101F00000280704770B5024600240023002500209F
:101F100040F66A16B14200D100BFC1F3421501F08C
:101F20001F03012606FA03F3012D02D196893340DF
:101F300006E0022D02D1168A334001E0968A334032
:101F40000C12012606FA04F41688344013B10CB1C1
:101F5000012000E0002070BD10B50022002340F6F3
:101F60006A14A14200D100BF0A1201249440A3B216
:101F7000DC43048010BD00000038014000440040F4
:101F800000480040004C0040005000400020444900
:101F90000860091D0860091D0860091D08604148A6
:101FA0003F4914310860704700213D498279002A79
:101FB0003AD00A46126803689A430B461A600A1D13
:101FC000126803689A430B1D1A60027911440A686B
:101FD00003681A430A60324A0832126803689A4357
:101FE0002F4B08331A601A1D126803689A432C4B52
:101FF0000C331A604279102A0ED11A1F1268036836
:102000001A43274B08331A601A1D126803681A43D3
:10201000234B0C331A600DE02149427911440A68C0
:1020200003681A430A6005E0027911440A680368EC
:102030009A430A6070470021016001710C214171CF
:102040000021817170471649103109680143144A13
:1020500010321160704701460020114A1432126894
:102060000A400AB1012000E0002070470C491431F9
:1020700008607047014600200022094B1B6803EAF4
:102080000102074B14331B680B4013B10AB1012046
:1020900000E00020704702491431086070470000DA
:1020A00000040140FFFF0F0010B50446FE488442C3
:1020B00008D10121C014FFF71BFD0021E014FFF738
:1020C00017FDC4E0B4F1804F08D101210846FFF7A5
:1020D0001CFD00210120FFF718FDB8E0F348844201
:1020E00008D101210220FFF710FD00210220FFF797
:1020F0000CFDACE0EE48844208D101210420FFF73A
:1021000004FD00210420FFF700FDA0E0E94884421F
:1021100008D101210820FFF7F8FC00210820FFF773
:10212000F4FC94E0E448844208D101211020FFF738
:10213000ECFC00211020FFF7E8FC88E0DF48844237
:1021400008D101212020FFF7E0FC00212020FFF72B
:10215000DCFC7CE0DA48844208D101214014FFF71E
:10216000C7FC00216014FFF7C3FC70E0D54884422F
:1021700009D10121C804FFF7BBFC00214FF4002066
:10218000FFF7B6FC63E0D048844209D1012108057D
:10219000FFF7AEFC00214FF48010FFF7A9FC56E0DA
:1021A000CA48844209D101214805FFF7A1FC00215A
:1021B0004FF40010FFF79CFC49E0C548844208D169
:1021C00001214020FFF7A1FC00214020FFF79DFCEA
:1021D0003DE0C048844208D101218020FFF795FCF2
:1021E00000218020FFF791FC31E0BB48844208D1F8
:1021F00001218015FFF789FC0021A015FFF785FC60
:1022000025E0B648844209D101210804FFF770FC9B
:1022100000214FF48030FFF76BFC18E0B048844297
:1022200009D101214804FFF763FC00214FF400307D
:10223000FFF75EFC0BE0AB48844208D10121880423
:10224000FFF756FC00214FF48020FFF751FC10BD32
:1022500000220288944B98420ED0994B98420BD0A2
:10226000B0F1804F08D0914B984205D0904B9842E6
:1022700002D0904B984204D14FF68F731A404B888E
:102280001A438D4B984207D08C4B984204D04FF69E
:10229000FF431A40CB881A4302808B8883850B88C2
:1022A0000385814B98420BD0854B984208D08B4BCD
:1022B000984205D08A4B984202D08A4B984201D16D
:1022C0000B7A038601238382704770B500240022B5
:1022D0000023058C4FF6FE7635400584028C8388FA
:1022E000048B4FF68F752C40B51E2C400D882C4367
:1022F000751E2A400D892A434D882A436A4DA842FB
:102300000BD06F4DA84208D0744DA84205D0744D33
:10231000A84202D0734DA84213D14FF6F7752A4058
:102320004D892A434FF6FB752A408D882A434FF684
:10233000FF652B404FF6FF552B408D892B43CD89F0
:102340002B4383800483CD888586028470BD70B55D
:10235000002400220023058C4FF6EF7635400584DB
:10236000028C8388048B48F6FF752C404FF6FF459E
:102370002C400D884FF6FF7606EA05252C434FF6D4
:10238000DF752A400D8906EA05152A434D8806EABD
:1023900005152A43444DA84202D0494DA8421DD1FB
:1023A0004FF67F752A404D894FF6FF7606EA0515F0
:1023B0002A434FF6BF752A408D8806EA05152A4341
:1023C0004FF6FF352B404FF2FF752B408D8906EA03
:1023D00085052B43CD8906EA85052B43838004833D
:1023E000CD880587028470BD70B5002400220023CB
:1023F000058C4FF6FF6635400584028C8388848BFC
:102400004FF68F752C404FF6FC752C400D882C43F1
:102410004FF6FF552A400D894FF6FF7606EA05254F
:102420002A434D8806EA05252A431F4DA84202D0BB
:10243000234DA8421DD14FF2FF752A404D894FF61A
:10244000FF7606EA05252A434FF6FF352A408D8898
:1024500006EA05252A434EF6FF752B404DF6FF751B
:102460002B408D8906EA05152B43CD8906EA051513
:102470002B4383808483CD888587028470BD70B5AB
:10248000002200230024058C4EF6FF76354005849B
:10249000038C8488828B48F6FF752A404FF6FF45EF
:1024A0002A400D8820E00000002C0140000400407C
:1024B00000080040000C00400010004000140040E4
:1024C00000340140004C01400050014000540140E4
:1024D00000180040001C0040002000400040014067
:1024E00000440140004801404FF6FF7606EA05250A
:1024F0002A434DF6FF752B400D8906EA05352B431F
:102500004D8806EA05352B43FA4DA84202D0FA4D14
:10251000A84208D14BF6FF752C408D894FF6FF7607
:1025200006EA85152C4384808283CD88A0F840502C
:10253000038470BD828B4FF2FF331A408283828BFB
:102540004FF6FF7303EA01231A4382837047F0B505
:102550000C461546002200210026078C4EF6FF7C13
:1025600007EA0C070784828B018C4FF6FF7707EA96
:10257000043640F6FF473A404FF6FF7707EA052753
:102580003A434FF6FF7707EA03373A43D94FB84249
:102590000ED0D94FB8420BD0B0F1804F08D0D74FF2
:1025A000B84205D0D64FB84202D0D64FB84206D175
:1025B0004DF6FF77394046F48057394305E047F63A
:1025C000FF57394044F48057394382830184F0BD7A
:1025D000828B4FF6F3731A408283828B0A43828385
:1025E0007047F0B50C461546002200210026078CE6
:1025F0004FF6FF6C07EA0C070784828B018C4FF6BD
:10260000FF7707EA04264FF60C773A404FF6FF773C
:1026100007EA03172F433A43B64FB8420ED0B64FDE
:10262000B8420BD0B0F1804F08D0B44FB84205D0BB
:10263000B34FB84202D0B34FB84206D14FF6FF575E
:10264000394046F48077394305E04FF2FF5739406F
:1026500044F48077394382830184F0BD028B4FF2CA
:10266000FF331A400283028B4FF6FF7303EA012304
:102670001A4302837047F0B50C461546002200212C
:102680000026078C4FF6EF7C07EA0C070784028BC5
:10269000018C4FF6FF7707EA041640F6FF473A40F1
:1026A0004FF6FF7707EA03373A434FF6FF7707EA1B
:1026B00005273A438F4FB8420ED08F4FB8420BD008
:1026C000B0F1804F08D08D4FB84205D08C4FB84242
:1026D00002D08C4FB84206D14FF6DF77394046F032
:1026E0001007394305E04FF65F77394044F0100793
:1026F000394302830184F0BD028B4FF6F3731A4015
:102700000283028B0A4302837047F0B50C461546DC
:1027100000220021068C4FF6FE773E400684028B95
:10272000018C4FF60C7632407E1C06EA03162E43CF
:102730003243704EB0420ED06F4EB0420BD0B0F16B
:10274000804F08D06D4EB04205D06D4EB04202D0E1
:102750006C4EB04206D14FF6FD76314044F0010692
:10276000314305E04FF6F576314044F00106314340
:1027700002830184F0BD70B505460C465D48854274
:102780000ED05D4885420BD0B5F1804F08D05B4834
:10279000854205D05A48854202D05A48854200D128
:1027A00000E000BF208850B92389A28861882846AC
:1027B000FFF7ABFFE1882846FFF79EFF25E0208862
:1027C00004280AD12389A28861882846FFF753FF8D
:1027D000E1882846FFF742FF17E0208808280AD141
:1027E0002389A28861882846FFF7FBFEE1882846F6
:1027F000FFF7EEFE09E02389A28861882846FFF7EB
:10280000A6FEE1882846FFF795FE70BD2DE9F04150
:1028100005460C4600260127608808B9022600E01C
:102820000026A088012801D1022700E00127208886
:10283000A0B92389A28861882846FFF766FFE1884E
:102840002846FFF759FF23893A4631462846FFF7C5
:1028500012FFE1882846FFF701FF13E02389A288D1
:1028600061882846FFF707FFE1882846FFF7F6FE54
:1028700023893A4631462846FFF747FFE188284634
:10288000FFF73AFFBDE8F0810A884B881A438B882E
:102890001A43CB881A430B891A434B891A438B89F5
:1028A0001A43A0F8442070474FF6FF718180002141
:1028B0000180C18041800172704700210180418008
:1028C0008180C180018141818181C1817047002166
:1028D00001804180012181800021C18001817047F8
:1028E0000021018041808180C180018141818181FD
:1028F00070470000002C01400034014000040040FB
:1029000000080040000C004021B1028842F00102A2
:10291000028004E002884FF6FE731A40028070477E
:1029200031B1B0F8442042F40042A0F8442005E060
:10293000B0F84420C2F30E02A0F8442070471AB148
:1029400083890B43838102E083898B4383817047B2
:102950008182704741EA0203A0F8483070471AB1FB
:1029600083890B43838102E083898B438381704792
:1029700001894FF6F8721140018170470A46002123
:1029800001894FF68F73194011430181704730B5AB
:1029900004460D4629462046FFF7F0FF208940F007
:1029A0000700208130BD2DE9F04104460D46164652
:1029B0001F46602D06D13B46012231462046FFF7D7
:1029C0005AFE05E03B46012231462046FFF79DFEB8
:1029D00029462046FFF7D2FF208940F007002081DA
:1029E000BDE8F08130B50C4600210189C9B24FF62F
:1029F000FF7505EA0325154325432943018130BDB1
:102A00002DE9F04105460E461746984600244346F8
:102A10003A4631462846FFF7E5FF2C894FF6F87015
:102A2000044044F007044FF68F70044044F07004F3
:102A30002C81BDE8F081F0B504460D4616461F46D0
:102A40003B46324629462046FFF7CCFF208940F41A
:102A500080402081F0BD0185828270470A460021B6
:102A600001884FF68F731940114301807047F0B50C
:102A70000C4615461E460021002200230189028BC8
:102A8000038C4FF6F877394021434FF6FC473A4024
:102A900040F201173A434FF6DD773B404FF6FF77A0
:102AA00007EA06172F433B43018102830384F0BDED
:102AB0000A460021018B4FF68F73194011430183A1
:102AC00070470A460021018B48F6FF7319404FF604
:102AD000FF7303EA02231943018370470A4600216A
:102AE000818B4FF68F7319401143818370470A46DB
:102AF0000021818B48F6FF7319404FF6FF7303EAFC
:102B0000022319438183704721B1028842F0800279
:102B1000028004E002884FF67F731A4002807047FB
:102B200021B1828842F00402828004E082884FF65C
:102B3000FB731A408280704721B1828842F00802FC
:102B4000828004E082884FF6F7731A4082807047D3
:102B500021B1828842F00102828004E082884FF62F
:102B6000FE731A40828070470A460021018B4FF69F
:102B7000F77319401143018370470A460021018B06
:102B80004FF2FF7319404FF6FF7303EA0223194314
:102B9000018370470A460021818B4FF6F773194075
:102BA0001143818370470A460021818B4FF2FF73E6
:102BB00019404FF6FF7303EA0223194381837047DC
:102BC0000A460021018B4FF6FB7319401143018324
:102BD00070470A460021018B4FF6FF3319404FF62C
:102BE000FF7303EA02231943018370470A46002159
:102BF000818B4FF6FB7319401143818370470A465E
:102C00000021818B4FF6FF3319404FF6FF7303EA23
:102C100002231943818370470A460021018B4FF636
:102C20007F7319401143018370470A460021018BCD
:102C3000C1F30E014FF6FF7303EA02231943018328
:102C400070470A460021818B4FF67F73194011436C
:102C5000818370470A460021818BC1F30E014FF634
:102C6000FF7303EA02231943818370470A46002158
:102C7000018C4FF6FD7319401143018470470A46D9
:102C80000021018C4FF6F7731940114301847047FE
:102C90000A460021018C4FF6DF7319404FF6FF738F
:102CA00003EA02131943018470470A460021018C8C
:102CB0004FF67F7319404FF6FF7303EA021319436F
:102CC000018470470A460021018C4FF6FF531940DA
:102CD0004FF6FF7303EA02231943018470470A4643
:102CE0000021018C4FF2FF7319404FF6FF7303EA86
:102CF00002231943018470470A460021018C4DF6D6
:102D0000FF7319404FF6FF7303EA0233194301843E
:102D1000704730B5002301248C40A3B2048C9C433F
:102D20000484048C02FA01F5ADB22C43048430BD56
:102D300030B5002304248C40A3B2048C9C4304844B
:102D4000048C02FA01F5ADB22C43048430BD70B599
:102D50000346002000241846183001258D40ACB2EF
:102D60001D8CA5431D8409B1082909D100EB610020
:102D7000056825F0700505600568154305600EE0DF
:102D80000D1FC5F34E052844056825F4E045056090
:102D900005684FF6FF7606EA02263543056070BDEA
:102DA00021B1028842F00202028004E002884FF65C
:102DB000FD731A400280704721B1028842F004027C
:102DC000028004E002884FF6FB731A4002807047CD
:102DD00021B1828842F08002828004E082884FF62E
:102DE0007F731A408280704702884FF6F7731A404B
:102DF000028002880A430280704782884FF68F73F0
:102E00001A40828082880A438280704702894FF686
:102E1000F8731A40028102890A43028170470289CD
:102E20004FF67F731A40028102890A43028170477C
:102E3000818470478185704781867047018770471C
:102E400081877047A0F84010704702884FF6FF4313
:102E50001A40028002880A43028070470146888E29
:102E600070470146088F70470146888F70470146BA
:102E7000B1F8400070470146888C70470146088DC4
:102E8000704702460020138A0B400BB1012000E07E
:102E900000207047CA430282704730B502460020C6
:102EA00000230024158A05EA0103958905EA010437
:102EB00013B10CB1012000E0002030BDCA430282F2
:102EC000704770477047704770477047754600F00D
:102ED0002BF8AE4605006946534620F007008546AC
:102EE00018B020B5FEF74EFABDE820404FF00006BE
:102EF0004FF000074FF000084FF0000B21F00701E2
:102F0000AC46ACE8C009ACE8C009ACE8C009ACE824
:102F1000C0098D46704710B50446AFF300802046C7
:102F2000BDE81040FDF74BB9004870470C05002084
:102F30000000000000000000000000000000000091
:102F40003F40000000000000000030004000300062
:102F50004000000009000BC03D000BC03D0009000F
:102F600018C024407FE0224031800000180024C0B7
:102F70001B000D803240018003801C4027401C80D4
:102F8000074000401000600000000000000000004A
:102F90000000000000001F80204040200000402072
:102FA00020401F8000000000090006001F8006006E
:102FB00009000000040004003F8004000400000039
:102FC0000010006000000000000000000400040089
:102FD00004000400040000000000004000000000A5
:102FE00000000000002001C0060038004000000082
:102FF0001F802040204020401F8000000000104023
:103000003FC000400000000018C021402240244082
:103010001840000010802040244024401B80000005
:1030200002000D0011003FC0014000003C80244020
:1030300024402440238000001F802440244034404A
:10304000038000003000200027C03800200000006E
:103050001B802440244024401B8000001C0022C010
:10306000224022401F8000000000000008400000B5
:1030700000000000000000000460000000000000EC
:10308000000004000A0011002080404009000900EF
:1030900009000900090000000000404020801100E4
:1030A0000A0004001800200023402400180000003B
:1030B0001F802040274029401F400000004007C0DB
:1030C00039000F0001C0004020403FC02440244090
:1030D0001B8000001F8020402040204030800000E6
:1030E00020403FC0204020401F80000020403FC0C3
:1030F00024402E4030C0000020403FC024402E001D
:10310000300000000F001080204022403380020079
:1031100020403FC0040004003FC020402040204029
:103120003FC02040204000000060202020203FC001
:103130002000200020403FC024400B0030C0204031
:1031400020403FC020400040004000C03FC03C0045
:1031500003C03C003FC0000020403FC00C402300A3
:103160003FC020001F802040204020401F800000E2
:1031700020403FC024402400180000001F80214050
:10318000214020E01FA0000020403FC02440260036
:1031900019C0004018C02440244022403180000063
:1031A000300020403FC020403000000020003F8021
:1031B000004000403F80200020003E0001C007008A
:1031C00038002000380007C03C0007C0380000006D
:1031D000204039C0060039C020400000200038409F
:1031E00007C0384020000000304021C02640384051
:1031F00020C00000000000007FE0402040200000D0
:10320000000070000C00038000400000000040201F
:1032100040207FE00000000000002000400020006F
:10322000000000000010001000100010001000103E
:1032300000000000400000000000000000000280CC
:103240000540054003C0004020003FC0044004404A
:10325000038000000000038004400440064000009A
:1032600000000380044024403FC000400000038071
:103270000540054003400000000004401FC02440FA
:1032800024402000000002E00550055006500420B4
:1032900020403FC00440040003C000400000044040
:1032A00027C000400000000000100010041027E0BC
:1032B0000000000020403FC00140070004C004405F
:1032C000204020403FC000400040000007C00400F4
:1032D00007C0040003C00000044007C0044004000D
:1032E00003C000400000038004400440038000004D
:1032F000041007F004500440038000000000038025
:103300000440045007F00010044007C002400400CD
:1033100004000000000006400540054004C0000015
:10332000000004001F8004400040000004000780EB
:103330000040044007C000400400070004C00180B2
:1033400006000400060001C0070001C006000000DE
:10335000044006C0010006C004400000041007102D
:1033600004E00180060004000000044005C006409F
:10337000044000000000000004007BE0402000004A
:10338000000000000000FFF00000000000004020EE
:103390007BE00400000000004000800040002000AE
:1033A00020004000082008C00B00FFFF0900289102
:1033B00027D2F554255825702558F55427D22011C9
:1033C00000010000080008040906090409FC0908B6
:1033D000090808080800FFC00830080888046802C7
:1033E000081F00002410246025807FFFC4804460F3
:1033F000008103011C020002FFE40008103008C035
:103400000600000002000200420033FE0004020831
:10341000020002000200FFFF0200020002000200A0
:103420000200000000003FFC2108210821083FFCA9
:10343000000008000880086008020801FFFE08007C
:1034400008000000020022002A0026FFA2927E92BD
:103450002292229222927E92A29226FF2A0022009B
:10346000020000000201420233FC0002000147FF9B
:103470004491549154914FFD54916495449307FDA8
:103480000001000001100110792F492949494949DB
:10349000798F07000180794F4D494B294929791FC0
:1034A0000110000000000202422222221A220222FF
:1034B0000222FE22022202220A22122263FF0000BE
:1034C000000000001000100017FF949074921491F7
:1034D00017FE1000100013F03002D00117FE10008C
:1034E000100000000100020104020904111861E04B
:1034F000010001020101C10231FC080004000200C8
:1035000001000000008420842488249024BF24C16A
:103510002482FFC424A024902488249424A42082FC
:103520000082000000000000000000000000000019
:10353000000000000000000000000000000000008B
:10354000000000000000000000000000000000007B
:10355000000000000000000000000000000000006B
:10356000000000000000000000000000000000005B
:10357000000000000000000000000000000000004B
:10358000000000000000000000000000000000003B
:10359000000000000000000000000000000000002B
:1035A000000000000000000000000000000000001B
:1035B000000000000000000000000000000000000B
:1035C00000000000000000000000000000000000FB
:1035D00000000000000000000000000000000000EB
:1035E00000000000000000000000000000000000DB
:1035F00000000000000000000000000000000000CB
:1036000000000000000000000000000000000000BA
:1036100000000000000000000000000000000000AA
:10362000000000000000000000000000000000009A
:10363000000000000000000000000000000000008A
:10364000000000000000000000000000000000007A
:10365000000000000000000000000000000000006A
:10366000000000000000000000000000000000005A
:10367000000000000000000000000000000000004A
:10368000000000000000000000000000000000003A
:10369000000000000000000000000000000000002A
:1036A000000000000000000000000000000000001A
:1036B000000000000000000000000000000000000A
:1036C00000000000000000000000000000000000FA
:1036D000000000000000000000001FCC000C0000F3
:1036E000000000000000080030006000080030000A
:1036F00060000000022003FC1E20022003FC1E20AC
:103700000220000000000E1811043FFF10840C7806
:10371000000000000F0010840F3800C007781884E4
:103720000078000000780F8410C411240E9800E483
:10373000008400080800680070000000000000001D
:103740000000000000000000000007E0181820043E
:1037500040020000000040022004181807E00000AA
:10376000000000000240024001800FF00180024092
:10377000024000000080008000800FF80080008080
:10378000008000000001000D000E0000000000009D
:1037900000000000000000800080008000800080A9
:1037A000008000800000000C000C00000000000001
:1037B0000000000000000006001800600180060004
:1037C00018002000000007F0080810041004080882
:1037D00007F000000000080408041FFC00040004B7
:1037E0000000000000000E0C10141024104411847E
:1037F0000E0C000000000C181004110411041288B3
:103800000C700000000000E00320042408241FFCCA
:103810000024000000001F98108411041104108877
:1038200010700000000007F00888110411041888C7
:103830000070000000001C00100010FC13001C00B1
:103840001000000000000E38114410841084114450
:103850000E38000000000700088C1044104408884F
:1038600007F00000000000000000030C030C000043
:103870000000000000000000000101060000000040
:103880000000000000000080014002200410080831
:103890001004000002200220022002200220022048
:1038A000022000000000100408080410022001405B
:1038B0000080000000000E001200100C106C108040
:1038C0000F00000003E00C1813E4142417C40828A8
:1038D00007D000000004003C03C41C40074000E483
:1038E000001C000410041FFC1104110411040E88B4
:1038F0000070000003E00C181004100410041008FD
:103900001C10000010041FFC100410041004080810
:1039100007F0000010041FFC1104110417C4100468
:103920000818000010041FFC1104110017C010003B
:103930000800000003E00C181004100410441C7868
:103940000040000010041FFC1084008000801084E0
:103950001FFC10040000100410041FFC10041004CD
:103960000000000000030001100110011FFE100004
:103970001000000010041FFC110403801464181CC4
:103980001004000010041FFC1004000400040004D4
:10399000000C000010041FFC1F0000FC1F001FFC97
:1039A0001004000010041FFC0C04030000E01018B9
:1039B0001FFC100007F00808100410041004080889
:1039C00007F0000010041FFC10841080108010808D
:1039D0000F00000007F0081810241024101C080A1B
:1039E00007F2000010041FFC1104110011C0113077
:1039F0000E0C000400000E1C1104108410841044EE
:103A00001C3800001800100010041FFC10041000E7
:103A10001800000010001FF8100400040004100437
:103A20001FF8100010001E0011E0001C0070138031
:103A30001C0010001FC0103C00E01F0000E0103C04
:103A40001FC000001004180C163401C001C0163449
:103A5000180C100410001C00130400FC13041C00BC
:103A6000100000000804101C1064108413041C04CF
:103A7000101800000000000000007FFE400240021D
:103A800040020000000030000C0003800060001CB9
:103A90000003000000004002400240027FFE0000E0
:103AA0000000000000000000200040004000400036
:103AB00020000000000100010001000100010001E0
:103AC0000001000100004000400020000000000054
:103AD000000000000000009801240144014401445A
:103AE00000FC000410001FFC008801040104008891
:103AF000007000000000007000880104010401044F
:103B00000088000000000070008801040104110812
:103B10001FFC0004000000F801440144014401447A
:103B200000C800000000010401040FFC110411048E
:103B300011001800000000D601290129012901C93E
:103B40000106000010041FFC0084010001000104B4
:103B500000FC000400000104190419FC0004000426
:103B6000000000000000000300010101190119FE1E
:103B70000000000010041FFC0024004001B4010CF0
:103B8000010400000000100410041FFC00040004E5
:103B900000000000010401FC0104010001FC01041B
:103BA000010000FC010401FC00840100010001048B
:103BB00000FC0004000000F80104010401040104F9
:103BC00000F80000010101FF0085010401040088E4
:103BD000007000000000007000880104010401056D
:103BE00001FF00010104010401FC00840104010043
:103BF00001800000000000CC0124012401240124E4
:103C00000198000000000100010007F80104010410
:103C100000000000010001F8000400040004010895
:103C200001FC0004010001800170000C0010016023
:103C30000180010001F0010C003001C00030010CD6
:103C400001F0010000000104018C00740170018C7E
:103C500001040000010101810171000E00180160E2
:103C60000180010000000184010C01340144018441
:103C7000010C0000000000000000000001003EFCFC
:103C8000400240020000000000000000FFFF0000B2
:103C9000000000000000400240023EFC0100000065
:103CA0000000000000006000800080004000400034
:103CB00020002000D43C0008000000204400000048
:103CC0006C010008183D0008440000202C0B000087
:103CD0008801000800A24A04000000000000000063
:103CE00001020304060708090100000000000000AB
:103CF00000000000100000000000000000000000B4
:103D00000000000000000102030401020304060792
:083D1000080902040608000086
:0400000508000131BD
:00000001FF
